8=FIX.4.4|9=75|35=A|34=1|49=ATHENA|52=20220427-00:24:10.790|56=ACCEPTOR|98=0|108=30|141=Y|10=043|
8=FIX.4.4|9=75|35=A|34=1|49=ACCEPTOR|52=20220427-00:24:10.821|56=ATHENA|98=0|108=30|141=Y|10=038|
8=FIX.4.4|9=138|35=D|34=2|49=ACCEPTOR|52=20220427-00:24:13.221|56=ATHENA|11=123|15=USD|38=1200|40=1|54=1|55=TSLA|58=Optimusprime|60=20220427-03:24:13.219|10=082|
8=FIX.4.4|9=138|35=D|34=3|49=ACCEPTOR|52=20220427-00:24:13.222|56=ATHENA|11=123|15=USD|38=1200|40=1|54=1|55=TSLA|58=Optimusprime|60=20220427-03:24:13.219|10=084|
8=FIX.4.4|9=138|35=D|34=4|49=ACCEPTOR|52=20220427-00:24:33.196|56=ATHENA|11=123|15=USD|38=1200|40=1|54=1|55=TSLA|58=Optimusprime|60=20220427-03:24:33.195|10=102|
8=FIX.4.4|9=138|35=D|34=5|49=ACCEPTOR|52=20220427-00:24:33.197|56=ATHENA|11=123|15=USD|38=1200|40=1|54=1|55=TSLA|58=Optimusprime|60=20220427-03:24:33.195|10=104|
8=FIX.4.4|9=57|35=0|34=2|49=ATHENA|52=20220427-00:24:41.778|56=ACCEPTOR|10=223|
8=FIX.4.4|9=138|35=D|34=6|49=ACCEPTOR|52=20220427-00:24:53.196|56=ATHENA|11=123|15=USD|38=1200|40=1|54=1|55=TSLA|58=Optimusprime|60=20220427-03:24:53.195|10=108|
8=FIX.4.4|9=138|35=D|34=7|49=ACCEPTOR|52=20220427-00:24:53.197|56=ATHENA|11=123|15=USD|38=1200|40=1|54=1|55=TSLA|58=Optimusprime|60=20220427-03:24:53.195|10=110|
8=FIX.4.4|9=75|35=A|34=1|49=ATHENA|52=20220427-00:34:12.718|56=ACCEPTOR|98=0|108=30|141=Y|10=046|
8=FIX.4.4|9=75|35=A|34=1|49=ACCEPTOR|52=20220427-00:34:12.757|56=ATHENA|98=0|108=30|141=Y|10=049|
8=FIX.4.4|9=138|35=D|34=2|49=ACCEPTOR|52=20220427-00:34:15.112|56=ATHENA|11=123|15=USD|38=1200|40=1|54=1|55=TSLA|58=Optimusprime|60=20220427-03:34:15.110|10=077|
8=FIX.4.4|9=138|35=D|34=3|49=ACCEPTOR|52=20220427-00:34:15.114|56=ATHENA|11=123|15=USD|38=1200|40=1|54=1|55=TSLA|58=Optimusprime|60=20220427-03:34:15.110|10=080|
8=FIX.4.4|9=138|35=D|34=4|49=ACCEPTOR|52=20220427-00:34:35.091|56=ATHENA|11=123|15=USD|38=1200|40=1|54=1|55=TSLA|58=Optimusprime|60=20220427-03:34:35.090|10=096|
8=FIX.4.4|9=138|35=D|34=5|49=ACCEPTOR|52=20220427-00:34:35.092|56=ATHENA|11=123|15=USD|38=1200|40=1|54=1|55=TSLA|58=Optimusprime|60=20220427-03:34:35.090|10=098|
8=FIX.4.4|9=57|35=0|34=2|49=ATHENA|52=20220427-00:34:43.704|56=ACCEPTOR|10=215|
8=FIX.4.4|9=138|35=D|34=6|49=ACCEPTOR|52=20220427-00:34:55.091|56=ATHENA|11=123|15=USD|38=1200|40=1|54=1|55=TSLA|58=Optimusprime|60=20220427-03:34:55.090|10=102|
8=FIX.4.4|9=138|35=D|34=7|49=ACCEPTOR|52=20220427-00:34:55.092|56=ATHENA|11=123|15=USD|38=1200|40=1|54=1|55=TSLA|58=Optimusprime|60=20220427-03:34:55.090|10=104|
8=FIX.4.4|9=57|35=0|34=3|49=ATHENA|52=20220427-00:35:13.703|56=ACCEPTOR|10=213|
8=FIX.4.4|9=138|35=D|34=8|49=ACCEPTOR|52=20220427-00:35:15.090|56=ATHENA|11=123|15=USD|38=1200|40=1|54=1|55=TSLA|58=Optimusprime|60=20220427-03:35:15.090|10=097|
8=FIX.4.4|9=138|35=D|34=9|49=ACCEPTOR|52=20220427-00:35:15.091|56=ATHENA|11=123|15=USD|38=1200|40=1|54=1|55=TSLA|58=Optimusprime|60=20220427-03:35:15.090|10=099|
8=FIX.4.4|9=139|35=D|34=10|49=ACCEPTOR|52=20220427-00:35:35.090|56=ATHENA|11=123|15=USD|38=1200|40=1|54=1|55=TSLA|58=Optimusprime|60=20220427-03:35:35.090|10=143|
8=FIX.4.4|9=139|35=D|34=11|49=ACCEPTOR|52=20220427-00:35:35.093|56=ATHENA|11=123|15=USD|38=1200|40=1|54=1|55=TSLA|58=Optimusprime|60=20220427-03:35:35.090|10=147|
8=FIX.4.4|9=57|35=0|34=4|49=ATHENA|52=20220427-00:35:43.704|56=ACCEPTOR|10=218|
8=FIX.4.4|9=139|35=D|34=12|49=ACCEPTOR|52=20220427-00:35:55.090|56=ATHENA|11=123|15=USD|38=1200|40=1|54=1|55=TSLA|58=Optimusprime|60=20220427-03:35:55.090|10=149|
8=FIX.4.4|9=139|35=D|34=13|49=ACCEPTOR|52=20220427-00:35:55.092|56=ATHENA|11=123|15=USD|38=1200|40=1|54=1|55=TSLA|58=Optimusprime|60=20220427-03:35:55.090|10=152|
8=FIX.4.4|9=57|35=0|34=5|49=ATHENA|52=20220427-00:36:13.704|56=ACCEPTOR|10=217|
8=FIX.4.4|9=139|35=D|34=14|49=ACCEPTOR|52=20220427-00:36:15.091|56=ATHENA|11=123|15=USD|38=1200|40=1|54=1|55=TSLA|58=Optimusprime|60=20220427-03:36:15.090|10=146|
8=FIX.4.4|9=139|35=D|34=15|49=ACCEPTOR|52=20220427-00:36:15.092|56=ATHENA|11=123|15=USD|38=1200|40=1|54=1|55=TSLA|58=Optimusprime|60=20220427-03:36:15.090|10=148|
8=FIX.4.4|9=139|35=D|34=16|49=ACCEPTOR|52=20220427-00:36:35.091|56=ATHENA|11=123|15=USD|38=1200|40=1|54=1|55=TSLA|58=Optimusprime|60=20220427-03:36:35.090|10=152|
8=FIX.4.4|9=139|35=D|34=17|49=ACCEPTOR|52=20220427-00:36:35.092|56=ATHENA|11=123|15=USD|38=1200|40=1|54=1|55=TSLA|58=Optimusprime|60=20220427-03:36:35.090|10=154|
8=FIX.4.4|9=57|35=0|34=6|49=ATHENA|52=20220427-00:36:43.704|56=ACCEPTOR|10=221|
8=FIX.4.4|9=139|35=D|34=18|49=ACCEPTOR|52=20220427-00:36:55.091|56=ATHENA|11=123|15=USD|38=1200|40=1|54=1|55=TSLA|58=Optimusprime|60=20220427-03:36:55.090|10=158|
8=FIX.4.4|9=139|35=D|34=19|49=ACCEPTOR|52=20220427-00:36:55.092|56=ATHENA|11=123|15=USD|38=1200|40=1|54=1|55=TSLA|58=Optimusprime|60=20220427-03:36:55.090|10=160|
8=FIX.4.4|9=57|35=0|34=7|49=ATHENA|52=20220427-00:37:13.704|56=ACCEPTOR|10=220|
8=FIX.4.4|9=139|35=D|34=20|49=ACCEPTOR|52=20220427-00:37:15.091|56=ATHENA|11=123|15=USD|38=1200|40=1|54=1|55=TSLA|58=Optimusprime|60=20220427-03:37:15.090|10=145|
8=FIX.4.4|9=139|35=D|34=21|49=ACCEPTOR|52=20220427-00:37:15.092|56=ATHENA|11=123|15=USD|38=1200|40=1|54=1|55=TSLA|58=Optimusprime|60=20220427-03:37:15.090|10=147|
8=FIX.4.4|9=139|35=D|34=22|49=ACCEPTOR|52=20220427-00:37:35.091|56=ATHENA|11=123|15=USD|38=1200|40=1|54=1|55=TSLA|58=Optimusprime|60=20220427-03:37:35.090|10=151|
8=FIX.4.4|9=139|35=D|34=23|49=ACCEPTOR|52=20220427-00:37:35.092|56=ATHENA|11=123|15=USD|38=1200|40=1|54=1|55=TSLA|58=Optimusprime|60=20220427-03:37:35.090|10=153|
8=FIX.4.4|9=57|35=0|34=8|49=ATHENA|52=20220427-00:37:43.704|56=ACCEPTOR|10=224|
8=FIX.4.4|9=139|35=D|34=24|49=ACCEPTOR|52=20220427-00:37:55.090|56=ATHENA|11=123|15=USD|38=1200|40=1|54=1|55=TSLA|58=Optimusprime|60=20220427-03:37:55.090|10=156|
8=FIX.4.4|9=139|35=D|34=25|49=ACCEPTOR|52=20220427-00:37:55.092|56=ATHENA|11=123|15=USD|38=1200|40=1|54=1|55=TSLA|58=Optimusprime|60=20220427-03:37:55.090|10=159|
8=FIX.4.4|9=57|35=0|34=9|49=ATHENA|52=20220427-00:38:13.704|56=ACCEPTOR|10=223|
8=FIX.4.4|9=139|35=D|34=26|49=ACCEPTOR|52=20220427-00:38:15.091|56=ATHENA|11=123|15=USD|38=1200|40=1|54=1|55=TSLA|58=Optimusprime|60=20220427-03:38:15.090|10=153|
8=FIX.4.4|9=139|35=D|34=27|49=ACCEPTOR|52=20220427-00:38:15.092|56=ATHENA|11=123|15=USD|38=1200|40=1|54=1|55=TSLA|58=Optimusprime|60=20220427-03:38:15.090|10=155|
8=FIX.4.4|9=139|35=D|34=28|49=ACCEPTOR|52=20220427-00:38:35.090|56=ATHENA|11=123|15=USD|38=1200|40=1|54=1|55=TSLA|58=Optimusprime|60=20220427-03:38:35.090|10=158|
8=FIX.4.4|9=139|35=D|34=29|49=ACCEPTOR|52=20220427-00:38:35.091|56=ATHENA|11=123|15=USD|38=1200|40=1|54=1|55=TSLA|58=Optimusprime|60=20220427-03:38:35.090|10=160|
8=FIX.4.4|9=58|35=0|34=10|49=ATHENA|52=20220427-00:38:43.704|56=ACCEPTOR|10=011|
8=FIX.4.4|9=75|35=A|34=1|49=ATHENA|52=20220427-00:39:15.969|56=ACCEPTOR|98=0|108=30|141=Y|10=062|
8=FIX.4.4|9=75|35=A|34=1|49=ACCEPTOR|52=20220427-00:39:15.998|56=ATHENA|98=0|108=30|141=Y|10=064|
8=FIX.4.4|9=138|35=D|34=2|49=ACCEPTOR|52=20220427-00:39:18.509|56=ATHENA|11=123|15=USD|38=1200|40=1|54=1|55=TSLA|58=Optimusprime|60=20220427-03:39:18.508|10=114|
8=FIX.4.4|9=138|35=D|34=3|49=ACCEPTOR|52=20220427-00:39:18.510|56=ATHENA|11=123|15=USD|38=1200|40=1|54=1|55=TSLA|58=Optimusprime|60=20220427-03:39:18.508|10=107|
8=FIX.4.4|9=138|35=D|34=4|49=ACCEPTOR|52=20220427-00:39:38.486|56=ATHENA|11=123|15=USD|38=1200|40=1|54=1|55=TSLA|58=Optimusprime|60=20220427-03:39:38.486|10=129|
8=FIX.4.4|9=138|35=D|34=5|49=ACCEPTOR|52=20220427-00:39:38.487|56=ATHENA|11=123|15=USD|38=1200|40=1|54=1|55=TSLA|58=Optimusprime|60=20220427-03:39:38.486|10=131|
8=FIX.4.4|9=57|35=0|34=2|49=ATHENA|52=20220427-00:39:46.955|56=ACCEPTOR|10=231|
8=FIX.4.4|9=138|35=D|34=6|49=ACCEPTOR|52=20220427-00:39:58.486|56=ATHENA|11=123|15=USD|38=1200|40=1|54=1|55=TSLA|58=Optimusprime|60=20220427-03:39:58.486|10=135|
8=FIX.4.4|9=138|35=D|34=7|49=ACCEPTOR|52=20220427-00:39:58.488|56=ATHENA|11=123|15=USD|38=1200|40=1|54=1|55=TSLA|58=Optimusprime|60=20220427-03:39:58.486|10=138|
8=FIX.4.4|9=57|35=0|34=3|49=ATHENA|52=20220427-00:40:16.955|56=ACCEPTOR|10=221|
8=FIX.4.4|9=138|35=D|34=8|49=ACCEPTOR|52=20220427-00:40:18.486|56=ATHENA|11=123|15=USD|38=1200|40=1|54=1|55=TSLA|58=Optimusprime|60=20220427-03:40:18.486|10=113|
8=FIX.4.4|9=138|35=D|34=9|49=ACCEPTOR|52=20220427-00:40:18.488|56=ATHENA|11=123|15=USD|38=1200|40=1|54=1|55=TSLA|58=Optimusprime|60=20220427-03:40:18.486|10=116|
8=FIX.4.4|9=139|35=D|34=10|49=ACCEPTOR|52=20220427-00:40:38.486|56=ATHENA|11=123|15=USD|38=1200|40=1|54=1|55=TSLA|58=Optimusprime|60=20220427-03:40:38.486|10=159|
8=FIX.4.4|9=139|35=D|34=11|49=ACCEPTOR|52=20220427-00:40:38.488|56=ATHENA|11=123|15=USD|38=1200|40=1|54=1|55=TSLA|58=Optimusprime|60=20220427-03:40:38.486|10=162|
8=FIX.4.4|9=57|35=0|34=4|49=ATHENA|52=20220427-00:40:46.955|56=ACCEPTOR|10=225|
8=FIX.4.4|9=139|35=D|34=12|49=ACCEPTOR|52=20220427-00:40:58.486|56=ATHENA|11=123|15=USD|38=1200|40=1|54=1|55=TSLA|58=Optimusprime|60=20220427-03:40:58.486|10=165|
8=FIX.4.4|9=139|35=D|34=13|49=ACCEPTOR|52=20220427-00:40:58.488|56=ATHENA|11=123|15=USD|38=1200|40=1|54=1|55=TSLA|58=Optimusprime|60=20220427-03:40:58.486|10=168|
8=FIX.4.4|9=57|35=0|34=5|49=ATHENA|52=20220427-00:41:16.955|56=ACCEPTOR|10=224|
8=FIX.4.4|9=139|35=D|34=14|49=ACCEPTOR|52=20220427-00:41:18.486|56=ATHENA|11=123|15=USD|38=1200|40=1|54=1|55=TSLA|58=Optimusprime|60=20220427-03:41:18.486|10=161|
8=FIX.4.4|9=139|35=D|34=15|49=ACCEPTOR|52=20220427-00:41:18.488|56=ATHENA|11=123|15=USD|38=1200|40=1|54=1|55=TSLA|58=Optimusprime|60=20220427-03:41:18.486|10=164|
8=FIX.4.4|9=75|35=A|34=1|49=ATHENA|52=20220427-00:49:05.770|56=ACCEPTOR|98=0|108=30|141=Y|10=052|
8=FIX.4.4|9=75|35=A|34=1|49=ACCEPTOR|52=20220427-00:49:05.822|56=ATHENA|98=0|108=30|141=Y|10=050|
8=FIX.4.4|9=138|35=D|34=2|49=ACCEPTOR|52=20220427-00:49:13.245|56=ATHENA|11=123|15=USD|38=1200|40=1|54=1|55=TSLA|58=Optimusprime|60=20220427-03:49:13.243|10=099|
8=FIX.4.4|9=138|35=D|34=3|49=ACCEPTOR|52=20220427-00:49:13.246|56=ATHENA|11=123|15=USD|38=1200|40=1|54=1|55=TSLA|58=Optimusprime|60=20220427-03:49:13.243|10=101|
8=FIX.4.4|9=138|35=D|34=4|49=ACCEPTOR|52=20220427-00:49:33.219|56=ATHENA|11=123|15=USD|38=1200|40=1|54=1|55=TSLA|58=Optimusprime|60=20220427-03:49:33.218|10=108|
8=FIX.4.4|9=138|35=D|34=5|49=ACCEPTOR|52=20220427-00:49:33.220|56=ATHENA|11=123|15=USD|38=1200|40=1|54=1|55=TSLA|58=Optimusprime|60=20220427-03:49:33.218|10=101|
8=FIX.4.4|9=57|35=0|34=2|49=ATHENA|52=20220427-00:49:36.757|56=ACCEPTOR|10=231|
8=FIX.4.4|9=138|35=D|34=6|49=ACCEPTOR|52=20220427-00:49:53.219|56=ATHENA|11=123|15=USD|38=1200|40=1|54=1|55=TSLA|58=Optimusprime|60=20220427-03:49:53.218|10=114|
8=FIX.4.4|9=138|35=D|34=7|49=ACCEPTOR|52=20220427-00:49:53.220|56=ATHENA|11=123|15=USD|38=1200|40=1|54=1|55=TSLA|58=Optimusprime|60=20220427-03:49:53.218|10=107|
8=FIX.4.4|9=57|35=0|34=3|49=ATHENA|52=20220427-00:50:06.756|56=ACCEPTOR|10=220|
8=FIX.4.4|9=138|35=D|34=8|49=ACCEPTOR|52=20220427-00:50:13.219|56=ATHENA|11=123|15=USD|38=1200|40=1|54=1|55=TSLA|58=Optimusprime|60=20220427-03:50:13.218|10=092|
8=FIX.4.4|9=138|35=D|34=9|49=ACCEPTOR|52=20220427-00:50:13.220|56=ATHENA|11=123|15=USD|38=1200|40=1|54=1|55=TSLA|58=Optimusprime|60=20220427-03:50:13.218|10=085|
8=FIX.4.4|9=139|35=D|34=10|49=ACCEPTOR|52=20220427-00:50:33.219|56=ATHENA|11=123|15=USD|38=1200|40=1|54=1|55=TSLA|58=Optimusprime|60=20220427-03:50:33.218|10=138|
8=FIX.4.4|9=139|35=D|34=11|49=ACCEPTOR|52=20220427-00:50:33.220|56=ATHENA|11=123|15=USD|38=1200|40=1|54=1|55=TSLA|58=Optimusprime|60=20220427-03:50:33.218|10=131|
8=FIX.4.4|9=57|35=0|34=4|49=ATHENA|52=20220427-00:50:36.756|56=ACCEPTOR|10=224|
8=FIX.4.4|9=139|35=D|34=12|49=ACCEPTOR|52=20220427-00:50:53.219|56=ATHENA|11=123|15=USD|38=1200|40=1|54=1|55=TSLA|58=Optimusprime|60=20220427-03:50:53.218|10=144|
8=FIX.4.4|9=139|35=D|34=13|49=ACCEPTOR|52=20220427-00:50:53.220|56=ATHENA|11=123|15=USD|38=1200|40=1|54=1|55=TSLA|58=Optimusprime|60=20220427-03:50:53.218|10=137|
8=FIX.4.4|9=57|35=0|34=5|49=ATHENA|52=20220427-00:51:06.756|56=ACCEPTOR|10=223|
8=FIX.4.4|9=139|35=D|34=14|49=ACCEPTOR|52=20220427-00:51:13.219|56=ATHENA|11=123|15=USD|38=1200|40=1|54=1|55=TSLA|58=Optimusprime|60=20220427-03:51:13.218|10=140|
8=FIX.4.4|9=139|35=D|34=15|49=ACCEPTOR|52=20220427-00:51:13.220|56=ATHENA|11=123|15=USD|38=1200|40=1|54=1|55=TSLA|58=Optimusprime|60=20220427-03:51:13.218|10=133|
8=FIX.4.4|9=139|35=D|34=16|49=ACCEPTOR|52=20220427-00:51:33.219|56=ATHENA|11=123|15=USD|38=1200|40=1|54=1|55=TSLA|58=Optimusprime|60=20220427-03:51:33.218|10=146|
8=FIX.4.4|9=139|35=D|34=17|49=ACCEPTOR|52=20220427-00:51:33.220|56=ATHENA|11=123|15=USD|38=1200|40=1|54=1|55=TSLA|58=Optimusprime|60=20220427-03:51:33.218|10=139|
8=FIX.4.4|9=57|35=0|34=6|49=ATHENA|52=20220427-00:51:36.756|56=ACCEPTOR|10=227|
8=FIX.4.4|9=139|35=D|34=18|49=ACCEPTOR|52=20220427-00:51:53.218|56=ATHENA|11=123|15=USD|38=1200|40=1|54=1|55=TSLA|58=Optimusprime|60=20220427-03:51:53.218|10=151|
8=FIX.4.4|9=139|35=D|34=19|49=ACCEPTOR|52=20220427-00:51:53.219|56=ATHENA|11=123|15=USD|38=1200|40=1|54=1|55=TSLA|58=Optimusprime|60=20220427-03:51:53.218|10=153|
8=FIX.4.4|9=57|35=0|34=7|49=ATHENA|52=20220427-00:52:06.756|56=ACCEPTOR|10=226|
8=FIX.4.4|9=139|35=D|34=20|49=ACCEPTOR|52=20220427-00:52:13.218|56=ATHENA|11=123|15=USD|38=1200|40=1|54=1|55=TSLA|58=Optimusprime|60=20220427-03:52:13.218|10=138|
8=FIX.4.4|9=139|35=D|34=21|49=ACCEPTOR|52=20220427-00:52:13.220|56=ATHENA|11=123|15=USD|38=1200|40=1|54=1|55=TSLA|58=Optimusprime|60=20220427-03:52:13.218|10=132|
8=FIX.4.4|9=139|35=D|34=22|49=ACCEPTOR|52=20220427-00:52:33.219|56=ATHENA|11=123|15=USD|38=1200|40=1|54=1|55=TSLA|58=Optimusprime|60=20220427-03:52:33.218|10=145|
8=FIX.4.4|9=139|35=D|34=23|49=ACCEPTOR|52=20220427-00:52:33.220|56=ATHENA|11=123|15=USD|38=1200|40=1|54=1|55=TSLA|58=Optimusprime|60=20220427-03:52:33.218|10=138|
8=FIX.4.4|9=57|35=0|34=8|49=ATHENA|52=20220427-00:52:36.756|56=ACCEPTOR|10=230|
8=FIX.4.4|9=139|35=D|34=24|49=ACCEPTOR|52=20220427-00:52:53.219|56=ATHENA|11=123|15=USD|38=1200|40=1|54=1|55=TSLA|58=Optimusprime|60=20220427-03:52:53.218|10=151|
8=FIX.4.4|9=139|35=D|34=25|49=ACCEPTOR|52=20220427-00:52:53.220|56=ATHENA|11=123|15=USD|38=1200|40=1|54=1|55=TSLA|58=Optimusprime|60=20220427-03:52:53.218|10=144|
8=FIX.4.4|9=57|35=0|34=9|49=ATHENA|52=20220427-00:53:06.756|56=ACCEPTOR|10=229|
8=FIX.4.4|9=139|35=D|34=26|49=ACCEPTOR|52=20220427-00:53:13.219|56=ATHENA|11=123|15=USD|38=1200|40=1|54=1|55=TSLA|58=Optimusprime|60=20220427-03:53:13.218|10=147|
8=FIX.4.4|9=139|35=D|34=27|49=ACCEPTOR|52=20220427-00:53:13.220|56=ATHENA|11=123|15=USD|38=1200|40=1|54=1|55=TSLA|58=Optimusprime|60=20220427-03:53:13.218|10=140|
8=FIX.4.4|9=139|35=D|34=28|49=ACCEPTOR|52=20220427-00:53:33.219|56=ATHENA|11=123|15=USD|38=1200|40=1|54=1|55=TSLA|58=Optimusprime|60=20220427-03:53:33.218|10=153|
8=FIX.4.4|9=139|35=D|34=29|49=ACCEPTOR|52=20220427-00:53:33.220|56=ATHENA|11=123|15=USD|38=1200|40=1|54=1|55=TSLA|58=Optimusprime|60=20220427-03:53:33.218|10=146|
8=FIX.4.4|9=58|35=0|34=10|49=ATHENA|52=20220427-00:53:36.756|56=ACCEPTOR|10=017|
8=FIX.4.4|9=139|35=D|34=30|49=ACCEPTOR|52=20220427-00:53:53.219|56=ATHENA|11=123|15=USD|38=1200|40=1|54=1|55=TSLA|58=Optimusprime|60=20220427-03:53:53.218|10=150|
8=FIX.4.4|9=139|35=D|34=31|49=ACCEPTOR|52=20220427-00:53:53.220|56=ATHENA|11=123|15=USD|38=1200|40=1|54=1|55=TSLA|58=Optimusprime|60=20220427-03:53:53.218|10=143|
8=FIX.4.4|9=58|35=0|34=11|49=ATHENA|52=20220427-00:54:06.756|56=ACCEPTOR|10=016|
8=FIX.4.4|9=139|35=D|34=32|49=ACCEPTOR|52=20220427-00:54:13.219|56=ATHENA|11=123|15=USD|38=1200|40=1|54=1|55=TSLA|58=Optimusprime|60=20220427-03:54:13.218|10=146|
8=FIX.4.4|9=139|35=D|34=33|49=ACCEPTOR|52=20220427-00:54:13.221|56=ATHENA|11=123|15=USD|38=1200|40=1|54=1|55=TSLA|58=Optimusprime|60=20220427-03:54:13.218|10=140|
8=FIX.4.4|9=139|35=D|34=34|49=ACCEPTOR|52=20220427-00:54:33.219|56=ATHENA|11=123|15=USD|38=1200|40=1|54=1|55=TSLA|58=Optimusprime|60=20220427-03:54:33.218|10=152|
8=FIX.4.4|9=139|35=D|34=35|49=ACCEPTOR|52=20220427-00:54:33.220|56=ATHENA|11=123|15=USD|38=1200|40=1|54=1|55=TSLA|58=Optimusprime|60=20220427-03:54:33.218|10=145|
8=FIX.4.4|9=58|35=0|34=12|49=ATHENA|52=20220427-00:54:36.756|56=ACCEPTOR|10=020|
8=FIX.4.4|9=139|35=D|34=36|49=ACCEPTOR|52=20220427-00:54:53.218|56=ATHENA|11=123|15=USD|38=1200|40=1|54=1|55=TSLA|58=Optimusprime|60=20220427-03:54:53.218|10=157|
8=FIX.4.4|9=139|35=D|34=37|49=ACCEPTOR|52=20220427-00:54:53.219|56=ATHENA|11=123|15=USD|38=1200|40=1|54=1|55=TSLA|58=Optimusprime|60=20220427-03:54:53.218|10=159|
8=FIX.4.4|9=58|35=0|34=13|49=ATHENA|52=20220427-00:55:06.756|56=ACCEPTOR|10=019|
8=FIX.4.4|9=139|35=D|34=38|49=ACCEPTOR|52=20220427-00:55:13.219|56=ATHENA|11=123|15=USD|38=1200|40=1|54=1|55=TSLA|58=Optimusprime|60=20220427-03:55:13.218|10=154|
8=FIX.4.4|9=139|35=D|34=39|49=ACCEPTOR|52=20220427-00:55:13.220|56=ATHENA|11=123|15=USD|38=1200|40=1|54=1|55=TSLA|58=Optimusprime|60=20220427-03:55:13.218|10=147|
8=FIX.4.4|9=139|35=D|34=40|49=ACCEPTOR|52=20220427-00:55:33.219|56=ATHENA|11=123|15=USD|38=1200|40=1|54=1|55=TSLA|58=Optimusprime|60=20220427-03:55:33.218|10=151|
8=FIX.4.4|9=139|35=D|34=41|49=ACCEPTOR|52=20220427-00:55:33.220|56=ATHENA|11=123|15=USD|38=1200|40=1|54=1|55=TSLA|58=Optimusprime|60=20220427-03:55:33.218|10=144|
8=FIX.4.4|9=58|35=0|34=14|49=ATHENA|52=20220427-00:55:36.756|56=ACCEPTOR|10=023|
8=FIX.4.4|9=139|35=D|34=42|49=ACCEPTOR|52=20220427-00:55:53.218|56=ATHENA|11=123|15=USD|38=1200|40=1|54=1|55=TSLA|58=Optimusprime|60=20220427-03:55:53.218|10=156|
8=FIX.4.4|9=139|35=D|34=43|49=ACCEPTOR|52=20220427-00:55:53.219|56=ATHENA|11=123|15=USD|38=1200|40=1|54=1|55=TSLA|58=Optimusprime|60=20220427-03:55:53.218|10=158|
8=FIX.4.4|9=58|35=0|34=15|49=ATHENA|52=20220427-00:56:06.756|56=ACCEPTOR|10=022|
8=FIX.4.4|9=139|35=D|34=44|49=ACCEPTOR|52=20220427-00:56:13.218|56=ATHENA|11=123|15=USD|38=1200|40=1|54=1|55=TSLA|58=Optimusprime|60=20220427-03:56:13.218|10=152|
8=FIX.4.4|9=139|35=D|34=45|49=ACCEPTOR|52=20220427-00:56:13.219|56=ATHENA|11=123|15=USD|38=1200|40=1|54=1|55=TSLA|58=Optimusprime|60=20220427-03:56:13.218|10=154|
8=FIX.4.4|9=139|35=D|34=46|49=ACCEPTOR|52=20220427-00:56:33.219|56=ATHENA|11=123|15=USD|38=1200|40=1|54=1|55=TSLA|58=Optimusprime|60=20220427-03:56:33.218|10=159|
8=FIX.4.4|9=139|35=D|34=47|49=ACCEPTOR|52=20220427-00:56:33.220|56=ATHENA|11=123|15=USD|38=1200|40=1|54=1|55=TSLA|58=Optimusprime|60=20220427-03:56:33.218|10=152|
8=FIX.4.4|9=58|35=0|34=16|49=ATHENA|52=20220427-00:56:36.756|56=ACCEPTOR|10=026|
8=FIX.4.4|9=139|35=D|34=48|49=ACCEPTOR|52=20220427-00:56:53.219|56=ATHENA|11=123|15=USD|38=1200|40=1|54=1|55=TSLA|58=Optimusprime|60=20220427-03:56:53.218|10=165|
8=FIX.4.4|9=139|35=D|34=49|49=ACCEPTOR|52=20220427-00:56:53.220|56=ATHENA|11=123|15=USD|38=1200|40=1|54=1|55=TSLA|58=Optimusprime|60=20220427-03:56:53.218|10=158|
8=FIX.4.4|9=58|35=0|34=17|49=ATHENA|52=20220427-00:57:06.756|56=ACCEPTOR|10=025|
8=FIX.4.4|9=139|35=D|34=50|49=ACCEPTOR|52=20220427-00:57:13.219|56=ATHENA|11=123|15=USD|38=1200|40=1|54=1|55=TSLA|58=Optimusprime|60=20220427-03:57:13.218|10=152|
8=FIX.4.4|9=139|35=D|34=51|49=ACCEPTOR|52=20220427-00:57:13.219|56=ATHENA|11=123|15=USD|38=1200|40=1|54=1|55=TSLA|58=Optimusprime|60=20220427-03:57:13.218|10=153|
8=FIX.4.4|9=75|35=A|34=1|49=ATHENA|52=20220427-00:57:40.941|56=ACCEPTOR|98=0|108=30|141=Y|10=050|
8=FIX.4.4|9=75|35=A|34=1|49=ACCEPTOR|52=20220427-00:57:40.979|56=ATHENA|98=0|108=30|141=Y|10=061|
8=FIX.4.4|9=138|35=D|34=2|49=ACCEPTOR|52=20220427-00:57:43.480|56=ATHENA|11=123|15=USD|38=1200|40=1|54=1|55=TSLA|58=Optimusprime|60=20220427-03:57:43.479|10=115|
8=FIX.4.4|9=138|35=D|34=3|49=ACCEPTOR|52=20220427-00:57:43.482|56=ATHENA|11=123|15=USD|38=1200|40=1|54=1|55=TSLA|58=Optimusprime|60=20220427-03:57:43.479|10=118|
8=FIX.4.4|9=138|35=D|34=4|49=ACCEPTOR|52=20220427-00:58:03.457|56=ATHENA|11=123|15=USD|38=1200|40=1|54=1|55=TSLA|58=Optimusprime|60=20220427-03:58:03.457|10=111|
8=FIX.4.4|9=138|35=D|34=5|49=ACCEPTOR|52=20220427-00:58:03.458|56=ATHENA|11=123|15=USD|38=1200|40=1|54=1|55=TSLA|58=Optimusprime|60=20220427-03:58:03.457|10=113|
8=FIX.4.4|9=57|35=0|34=2|49=ATHENA|52=20220427-00:58:11.927|56=ACCEPTOR|10=223|
8=FIX.4.4|9=138|35=D|34=6|49=ACCEPTOR|52=20220427-00:58:23.457|56=ATHENA|11=123|15=USD|38=1200|40=1|54=1|55=TSLA|58=Optimusprime|60=20220427-03:58:23.457|10=117|
8=FIX.4.4|9=138|35=D|34=7|49=ACCEPTOR|52=20220427-00:58:23.460|56=ATHENA|11=123|15=USD|38=1200|40=1|54=1|55=TSLA|58=Optimusprime|60=20220427-03:58:23.457|10=112|
8=FIX.4.4|9=57|35=0|34=3|49=ATHENA|52=20220427-00:58:41.927|56=ACCEPTOR|10=227|
8=FIX.4.4|9=138|35=D|34=8|49=ACCEPTOR|52=20220427-00:58:43.458|56=ATHENA|11=123|15=USD|38=1200|40=1|54=1|55=TSLA|58=Optimusprime|60=20220427-03:58:43.457|10=124|
8=FIX.4.4|9=138|35=D|34=9|49=ACCEPTOR|52=20220427-00:58:43.459|56=ATHENA|11=123|15=USD|38=1200|40=1|54=1|55=TSLA|58=Optimusprime|60=20220427-03:58:43.457|10=126|
8=FIX.4.4|9=139|35=D|34=10|49=ACCEPTOR|52=20220427-00:59:03.457|56=ATHENA|11=123|15=USD|38=1200|40=1|54=1|55=TSLA|58=Optimusprime|60=20220427-03:59:03.457|10=159|
8=FIX.4.4|9=139|35=D|34=11|49=ACCEPTOR|52=20220427-00:59:03.459|56=ATHENA|11=123|15=USD|38=1200|40=1|54=1|55=TSLA|58=Optimusprime|60=20220427-03:59:03.457|10=162|
8=FIX.4.4|9=57|35=0|34=4|49=ATHENA|52=20220427-00:59:11.927|56=ACCEPTOR|10=226|
8=FIX.4.4|9=139|35=D|34=12|49=ACCEPTOR|52=20220427-00:59:23.457|56=ATHENA|11=123|15=USD|38=1200|40=1|54=1|55=TSLA|58=Optimusprime|60=20220427-03:59:23.457|10=165|
8=FIX.4.4|9=139|35=D|34=13|49=ACCEPTOR|52=20220427-00:59:23.459|56=ATHENA|11=123|15=USD|38=1200|40=1|54=1|55=TSLA|58=Optimusprime|60=20220427-03:59:23.457|10=168|
8=FIX.4.4|9=57|35=0|34=5|49=ATHENA|52=20220427-00:59:41.927|56=ACCEPTOR|10=230|
8=FIX.4.4|9=139|35=D|34=14|49=ACCEPTOR|52=20220427-00:59:43.457|56=ATHENA|11=123|15=USD|38=1200|40=1|54=1|55=TSLA|58=Optimusprime|60=20220427-03:59:43.457|10=171|
8=FIX.4.4|9=139|35=D|34=15|49=ACCEPTOR|52=20220427-00:59:43.459|56=ATHENA|11=123|15=USD|38=1200|40=1|54=1|55=TSLA|58=Optimusprime|60=20220427-03:59:43.457|10=174|
8=FIX.4.4|9=75|35=A|34=1|49=ATHENA|52=20220427-01:00:17.613|56=ACCEPTOR|98=0|108=30|141=Y|10=039|
8=FIX.4.4|9=75|35=A|34=1|49=ACCEPTOR|52=20220427-01:00:17.690|56=ATHENA|98=0|108=30|141=Y|10=044|
8=FIX.4.4|9=138|35=D|34=2|49=ACCEPTOR|52=20220427-01:00:19.610|56=ATHENA|11=123|15=USD|38=1200|40=1|54=1|55=TSLA|58=Optimusprime|60=20220427-04:00:19.608|10=088|
8=FIX.4.4|9=138|35=D|34=3|49=ACCEPTOR|52=20220427-01:00:19.613|56=ATHENA|11=123|15=USD|38=1200|40=1|54=1|55=TSLA|58=Optimusprime|60=20220427-04:00:19.612|10=087|
8=FIX.4.4|9=138|35=D|34=4|49=ACCEPTOR|52=20220427-01:00:39.571|56=ATHENA|11=123|15=USD|38=1200|40=1|54=1|55=TSLA|58=Optimusprime|60=20220427-04:00:39.571|10=099|
8=FIX.4.4|9=138|35=D|34=5|49=ACCEPTOR|52=20220427-01:00:39.572|56=ATHENA|11=123|15=USD|38=1200|40=1|54=1|55=TSLA|58=Optimusprime|60=20220427-04:00:39.571|10=101|
8=FIX.4.4|9=57|35=0|34=2|49=ATHENA|52=20220427-01:00:48.595|56=ACCEPTOR|10=222|
8=FIX.4.4|9=138|35=D|34=6|49=ACCEPTOR|52=20220427-01:00:59.571|56=ATHENA|11=123|15=USD|38=1200|40=1|54=1|55=TSLA|58=Optimusprime|60=20220427-04:00:59.571|10=105|
8=FIX.4.4|9=138|35=D|34=7|49=ACCEPTOR|52=20220427-01:00:59.573|56=ATHENA|11=123|15=USD|38=1200|40=1|54=1|55=TSLA|58=Optimusprime|60=20220427-04:00:59.571|10=108|
8=FIX.4.4|9=75|35=A|34=1|49=ATHENA|52=20220427-01:10:48.702|56=ACCEPTOR|98=0|108=30|141=Y|10=043|
8=FIX.4.4|9=75|35=A|34=1|49=ACCEPTOR|52=20220427-01:10:48.734|56=ATHENA|98=0|108=30|141=Y|10=048|
8=FIX.4.4|9=138|35=D|34=2|49=ATHENA|52=20220427-01:10:51.130|56=ACCEPTOR|11=123|15=USD|38=1200|40=1|54=1|55=TSLA|58=Optimusprime|60=20220427-04:10:51.128|10=076|
8=FIX.4.4|9=138|35=D|34=3|49=ATHENA|52=20220427-01:10:51.131|56=ACCEPTOR|11=123|15=USD|38=1200|40=1|54=1|55=TSLA|58=Optimusprime|60=20220427-04:10:51.128|10=078|
8=FIX.4.4|9=138|35=D|34=4|49=ATHENA|52=20220427-01:11:11.105|56=ACCEPTOR|11=123|15=USD|38=1200|40=1|54=1|55=TSLA|58=Optimusprime|60=20220427-04:11:11.104|10=068|
8=FIX.4.4|9=138|35=D|34=5|49=ATHENA|52=20220427-01:11:11.107|56=ACCEPTOR|11=123|15=USD|38=1200|40=1|54=1|55=TSLA|58=Optimusprime|60=20220427-04:11:11.104|10=071|
8=FIX.4.4|9=57|35=0|34=2|49=ACCEPTOR|52=20220427-01:11:19.667|56=ATHENA|10=222|
8=FIX.4.4|9=138|35=D|34=6|49=ATHENA|52=20220427-01:11:31.105|56=ACCEPTOR|11=123|15=USD|38=1200|40=1|54=1|55=TSLA|58=Optimusprime|60=20220427-04:11:31.104|10=074|
8=FIX.4.4|9=138|35=D|34=7|49=ATHENA|52=20220427-01:11:31.107|56=ACCEPTOR|11=123|15=USD|38=1200|40=1|54=1|55=TSLA|58=Optimusprime|60=20220427-04:11:31.104|10=077|
8=FIX.4.4|9=57|35=0|34=3|49=ACCEPTOR|52=20220427-01:11:49.666|56=ATHENA|10=225|
8=FIX.4.4|9=138|35=D|34=8|49=ATHENA|52=20220427-01:11:51.105|56=ACCEPTOR|11=123|15=USD|38=1200|40=1|54=1|55=TSLA|58=Optimusprime|60=20220427-04:11:51.104|10=080|
8=FIX.4.4|9=138|35=D|34=9|49=ATHENA|52=20220427-01:11:51.106|56=ACCEPTOR|11=123|15=USD|38=1200|40=1|54=1|55=TSLA|58=Optimusprime|60=20220427-04:11:51.104|10=082|
8=FIX.4.4|9=139|35=D|34=10|49=ATHENA|52=20220427-01:12:11.105|56=ACCEPTOR|11=123|15=USD|38=1200|40=1|54=1|55=TSLA|58=Optimusprime|60=20220427-04:12:11.104|10=116|
8=FIX.4.4|9=139|35=D|34=11|49=ATHENA|52=20220427-01:12:11.106|56=ACCEPTOR|11=123|15=USD|38=1200|40=1|54=1|55=TSLA|58=Optimusprime|60=20220427-04:12:11.104|10=118|
8=FIX.4.4|9=75|35=A|34=1|49=ATHENA|52=20220427-01:32:09.718|56=ACCEPTOR|98=0|108=30|141=Y|10=051|
8=FIX.4.4|9=75|35=A|34=1|49=ACCEPTOR|52=20220427-01:32:09.747|56=ATHENA|98=0|108=30|141=Y|10=053|
8=FIX.4.4|9=138|35=D|34=2|49=ATHENA|52=20220427-01:32:17.112|56=ACCEPTOR|11=123|15=USD|38=1200|40=1|54=1|55=TSLA|58=Optimusprime|60=20220427-04:32:17.111|10=080|
8=FIX.4.4|9=138|35=D|34=3|49=ATHENA|52=20220427-01:32:17.113|56=ACCEPTOR|11=123|15=USD|38=1200|40=1|54=1|55=TSLA|58=Optimusprime|60=20220427-04:32:17.111|10=082|
8=FIX.4.4|9=138|35=D|34=4|49=ATHENA|52=20220427-01:32:37.090|56=ACCEPTOR|11=123|15=USD|38=1200|40=1|54=1|55=TSLA|58=Optimusprime|60=20220427-04:32:37.089|10=105|
8=FIX.4.4|9=138|35=D|34=5|49=ATHENA|52=20220427-01:32:37.091|56=ACCEPTOR|11=123|15=USD|38=1200|40=1|54=1|55=TSLA|58=Optimusprime|60=20220427-04:32:37.089|10=107|
8=FIX.4.4|9=57|35=0|34=2|49=ACCEPTOR|52=20220427-01:32:40.679|56=ATHENA|10=222|
8=FIX.4.4|9=138|35=D|34=6|49=ATHENA|52=20220427-01:32:57.090|56=ACCEPTOR|11=123|15=USD|38=1200|40=1|54=1|55=TSLA|58=Optimusprime|60=20220427-04:32:57.089|10=111|
8=FIX.4.4|9=138|35=D|34=7|49=ATHENA|52=20220427-01:32:57.093|56=ACCEPTOR|11=123|15=USD|38=1200|40=1|54=1|55=TSLA|58=Optimusprime|60=20220427-04:32:57.089|10=115|
8=FIX.4.4|9=57|35=0|34=3|49=ACCEPTOR|52=20220427-01:33:10.678|56=ATHENA|10=220|
8=FIX.4.4|9=138|35=D|34=8|49=ATHENA|52=20220427-01:33:17.090|56=ACCEPTOR|11=123|15=USD|38=1200|40=1|54=1|55=TSLA|58=Optimusprime|60=20220427-04:33:17.089|10=107|
8=FIX.4.4|9=138|35=D|34=9|49=ATHENA|52=20220427-01:33:17.091|56=ACCEPTOR|11=123|15=USD|38=1200|40=1|54=1|55=TSLA|58=Optimusprime|60=20220427-04:33:17.089|10=109|
8=FIX.4.4|9=139|35=D|34=10|49=ATHENA|52=20220427-01:33:37.090|56=ACCEPTOR|11=123|15=USD|38=1200|40=1|54=1|55=TSLA|58=Optimusprime|60=20220427-04:33:37.089|10=153|
8=FIX.4.4|9=139|35=D|34=11|49=ATHENA|52=20220427-01:33:37.091|56=ACCEPTOR|11=123|15=USD|38=1200|40=1|54=1|55=TSLA|58=Optimusprime|60=20220427-04:33:37.090|10=147|
8=FIX.4.4|9=57|35=0|34=4|49=ACCEPTOR|52=20220427-01:33:40.678|56=ATHENA|10=224|
