8=FIX.4.4|9=75|35=A|34=1|49=ACCEPTOR|52=20220427-01:08:45.354|56=ATHENA|98=0|108=30|141=Y|10=050|8=FIX.4.4|9=138|35=D|34=2|49=ACCEPTOR|52=20220427-01:08:47.758|56=ATHENA|11=123|15=USD|38=1200|40=1|54=1|55=TSLA|58=Optimusprime|60=20220427-04:08:47.756|10=123|8=FIX.4.4|9=138|35=D|34=3|49=ACCEPTOR|52=20220427-01:08:47.758|56=ATHENA|11=123|15=USD|38=1200|40=1|54=1|55=TSLA|58=Optimusprime|60=20220427-04:08:47.756|10=124|8=FIX.4.4|9=138|35=D|34=4|49=ACCEPTOR|52=20220427-01:09:07.733|56=ATHENA|11=123|15=USD|38=1200|40=1|54=1|55=TSLA|58=Optimusprime|60=20220427-04:09:07.733|10=107|8=FIX.4.4|9=138|35=D|34=5|49=ACCEPTOR|52=20220427-01:09:07.735|56=ATHENA|11=123|15=USD|38=1200|40=1|54=1|55=TSLA|58=Optimusprime|60=20220427-04:09:07.733|10=110|8=FIX.4.4|9=138|35=D|34=6|49=ACCEPTOR|52=20220427-01:09:27.734|56=ATHENA|11=123|15=USD|38=1200|40=1|54=1|55=TSLA|58=Optimusprime|60=20220427-04:09:27.733|10=114|8=FIX.4.4|9=138|35=D|34=7|49=ACCEPTOR|52=20220427-01:09:27.735|56=ATHENA|11=123|15=USD|38=1200|40=1|54=1|55=TSLA|58=Optimusprime|60=20220427-04:09:27.733|10=116|8=FIX.4.4|9=138|35=D|34=8|49=ACCEPTOR|52=20220427-01:09:47.734|56=ATHENA|11=123|15=USD|38=1200|40=1|54=1|55=TSLA|58=Optimusprime|60=20220427-04:09:47.733|10=120|8=FIX.4.4|9=138|35=D|34=9|49=ACCEPTOR|52=20220427-01:09:47.735|56=ATHENA|11=123|15=USD|38=1200|40=1|54=1|55=TSLA|58=Optimusprime|60=20220427-04:09:47.733|10=122|8=FIX.4.4|9=139|35=D|34=10|49=ACCEPTOR|52=20220427-01:10:07.734|56=ATHENA|11=123|15=USD|38=1200|40=1|54=1|55=TSLA|58=Optimusprime|60=20220427-04:10:07.733|10=138|8=FIX.4.4|9=139|35=D|34=11|49=ACCEPTOR|52=20220427-01:10:07.735|56=ATHENA|11=123|15=USD|38=1200|40=1|54=1|55=TSLA|58=Optimusprime|60=20220427-04:10:07.733|10=140|8=FIX.4.4|9=139|35=D|34=12|49=ACCEPTOR|52=20220427-01:10:27.733|56=ATHENA|11=123|15=USD|38=1200|40=1|54=1|55=TSLA|58=Optimusprime|60=20220427-04:10:27.733|10=143|8=FIX.4.4|9=139|35=D|34=13|49=ACCEPTOR|52=20220427-01:10:27.734|56=ATHENA|11=123|15=USD|38=1200|40=1|54=1|55=TSLA|58=Optimusprime|60=20220427-04:10:27.733|10=145|