8=FIX.4.4|9=75|35=A|34=1|49=ATHENA|52=20220427-01:32:09.718|56=ACCEPTOR|98=0|108=30|141=Y|10=051|8=FIX.4.4|9=138|35=D|34=2|49=ATHENA|52=20220427-01:32:17.112|56=ACCEPTOR|11=123|15=USD|38=1200|40=1|54=1|55=TSLA|58=Optimusprime|60=20220427-04:32:17.111|10=080|8=FIX.4.4|9=138|35=D|34=3|49=ATHENA|52=20220427-01:32:17.113|56=ACCEPTOR|11=123|15=USD|38=1200|40=1|54=1|55=TSLA|58=Optimusprime|60=20220427-04:32:17.111|10=082|8=FIX.4.4|9=138|35=D|34=4|49=ATHENA|52=20220427-01:32:37.090|56=ACCEPTOR|11=123|15=USD|38=1200|40=1|54=1|55=TSLA|58=Optimusprime|60=20220427-04:32:37.089|10=105|8=FIX.4.4|9=138|35=D|34=5|49=ATHENA|52=20220427-01:32:37.091|56=ACCEPTOR|11=123|15=USD|38=1200|40=1|54=1|55=TSLA|58=Optimusprime|60=20220427-04:32:37.089|10=107|8=FIX.4.4|9=138|35=D|34=6|49=ATHENA|52=20220427-01:32:57.090|56=ACCEPTOR|11=123|15=USD|38=1200|40=1|54=1|55=TSLA|58=Optimusprime|60=20220427-04:32:57.089|10=111|8=FIX.4.4|9=138|35=D|34=7|49=ATHENA|52=20220427-01:32:57.093|56=ACCEPTOR|11=123|15=USD|38=1200|40=1|54=1|55=TSLA|58=Optimusprime|60=20220427-04:32:57.089|10=115|8=FIX.4.4|9=138|35=D|34=8|49=ATHENA|52=20220427-01:33:17.090|56=ACCEPTOR|11=123|15=USD|38=1200|40=1|54=1|55=TSLA|58=Optimusprime|60=20220427-04:33:17.089|10=107|8=FIX.4.4|9=138|35=D|34=9|49=ATHENA|52=20220427-01:33:17.091|56=ACCEPTOR|11=123|15=USD|38=1200|40=1|54=1|55=TSLA|58=Optimusprime|60=20220427-04:33:17.089|10=109|8=FIX.4.4|9=139|35=D|34=10|49=ATHENA|52=20220427-01:33:37.090|56=ACCEPTOR|11=123|15=USD|38=1200|40=1|54=1|55=TSLA|58=Optimusprime|60=20220427-04:33:37.089|10=153|8=FIX.4.4|9=139|35=D|34=11|49=ATHENA|52=20220427-01:33:37.091|56=ACCEPTOR|11=123|15=USD|38=1200|40=1|54=1|55=TSLA|58=Optimusprime|60=20220427-04:33:37.090|10=147|