8=FIX.4.4|9=75|35=A|34=1|49=ACCEPTOR|52=20220427-01:32:09.747|56=ATHENA|98=0|108=30|141=Y|10=053|8=FIX.4.4|9=57|35=0|34=2|49=ACCEPTOR|52=20220427-01:32:40.679|56=ATHENA|10=222|8=FIX.4.4|9=57|35=0|34=3|49=ACCEPTOR|52=20220427-01:33:10.678|56=ATHENA|10=220|8=FIX.4.4|9=57|35=0|34=4|49=ACCEPTOR|52=20220427-01:33:40.678|56=ATHENA|10=224|