8=FIX.4.4|9=75|35=A|34=1|49=ACCEPTOR|52=20220427-01:00:17.690|56=ATHENA|98=0|108=30|141=Y|10=044|8=FIX.4.4|9=138|35=D|34=2|49=ACCEPTOR|52=20220427-01:00:19.610|56=ATHENA|11=123|15=USD|38=1200|40=1|54=1|55=TSLA|58=Optimusprime|60=20220427-04:00:19.608|10=088|8=FIX.4.4|9=138|35=D|34=3|49=ACCEPTOR|52=20220427-01:00:19.613|56=ATHENA|11=123|15=USD|38=1200|40=1|54=1|55=TSLA|58=Optimusprime|60=20220427-04:00:19.612|10=087|8=FIX.4.4|9=138|35=D|34=4|49=ACCEPTOR|52=20220427-01:00:39.571|56=ATHENA|11=123|15=USD|38=1200|40=1|54=1|55=TSLA|58=Optimusprime|60=20220427-04:00:39.571|10=099|8=FIX.4.4|9=138|35=D|34=5|49=ACCEPTOR|52=20220427-01:00:39.572|56=ATHENA|11=123|15=USD|38=1200|40=1|54=1|55=TSLA|58=Optimusprime|60=20220427-04:00:39.571|10=101|8=FIX.4.4|9=138|35=D|34=6|49=ACCEPTOR|52=20220427-01:00:59.571|56=ATHENA|11=123|15=USD|38=1200|40=1|54=1|55=TSLA|58=Optimusprime|60=20220427-04:00:59.571|10=105|8=FIX.4.4|9=138|35=D|34=7|49=ACCEPTOR|52=20220427-01:00:59.573|56=ATHENA|11=123|15=USD|38=1200|40=1|54=1|55=TSLA|58=Optimusprime|60=20220427-04:00:59.571|10=108|